{
  "address": "0x43D838b683F772F08f321E5FA265ad3e333BE9C2",
  "abi": [
    {
      "anonymous": false,
      "inputs": [
        {
          "indexed": true,
          "internalType": "bytes",
          "name": "nodeId",
          "type": "bytes"
        },
        {
          "indexed": false,
          "internalType": "bytes32",
          "name": "contentHash",
          "type": "bytes32"
        },
        {
          "indexed": false,
          "internalType": "address",
          "name": "updater",
          "type": "address"
        }
      ],
      "name": "DataUpdated",
      "type": "event"
    },
    {
      "inputs": [
        {
          "internalType": "bytes[]",
          "name": "nodeIds",
          "type": "bytes[]"
        },
        {
          "internalType": "bytes32[]",
          "name": "contentHashes",
          "type": "bytes32[]"
        }
      ],
      "name": "batchUpdateData",
      "outputs": [],
      "stateMutability": "nonpayable",
      "type": "function"
    },
    {
      "inputs": [
        {
          "internalType": "bytes",
          "name": "nodeId",
          "type": "bytes"
        }
      ],
      "name": "getLatestRecord",
      "outputs": [
        {
          "internalType": "bytes32",
          "name": "",
          "type": "bytes32"
        },
        {
          "internalType": "uint256",
          "name": "",
          "type": "uint256"
        },
        {
          "internalType": "address",
          "name": "",
          "type": "address"
        }
      ],
      "stateMutability": "view",
      "type": "function"
    },
    {
      "inputs": [
        {
          "internalType": "bytes",
          "name": "",
          "type": "bytes"
        }
      ],
      "name": "nodeData",
      "outputs": [
        {
          "internalType": "bytes32",
          "name": "contentHash",
          "type": "bytes32"
        },
        {
          "internalType": "uint256",
          "name": "timestamp",
          "type": "uint256"
        },
        {
          "internalType": "address",
          "name": "updater",
          "type": "address"
        }
      ],
      "stateMutability": "view",
      "type": "function"
    },
    {
      "inputs": [
        {
          "internalType": "bytes",
          "name": "nodeId",
          "type": "bytes"
        },
        {
          "internalType": "bytes32",
          "name": "contentHash",
          "type": "bytes32"
        }
      ],
      "name": "updateData",
      "outputs": [],
      "stateMutability": "nonpayable",
      "type": "function"
    },
    {
      "inputs": [
        {
          "internalType": "bytes",
          "name": "nodeId",
          "type": "bytes"
        },
        {
          "internalType": "bytes32",
          "name": "contentHash",
          "type": "bytes32"
        }
      ],
      "name": "verifyData",
      "outputs": [
        {
          "internalType": "bool",
          "name": "",
          "type": "bool"
        },
        {
          "internalType": "uint256",
          "name": "",
          "type": "uint256"
        },
        {
          "internalType": "address",
          "name": "",
          "type": "address"
        }
      ],
      "stateMutability": "view",
      "type": "function"
    }
  ],
  "transactionHash": "0xc00b134812b2cb32d6a412fd1d1a4c9661777b0ee29ed0ff05b09c7c0b1f6f0d",
  "args": [],
  "numDeployments": 4,
  "solcInputHash": "40cece70198a47ff2f958bd8d77d352d",
  "bytecode": "0x608060405234801561001057600080fd5b506106a0806100206000396000f3fe608060405234801561001057600080fd5b50600436106100575760003560e01c80630d36830e1461005c5780630f07e48514610071578063d236feda14610084578063d54193d7146100c2578063d58a3de3146100f9575b600080fd5b61006f61006a3660046104a8565b61013c565b005b61006f61007f36600461057c565b6101e9565b61009761009236600461057c565b6102a2565b60408051931515845260208401929092526001600160a01b0316908201526060015b60405180910390f35b6100d56100d03660046105c1565b610302565b6040805193845260208401929092526001600160a01b0316908201526060016100b9565b6100d56101073660046105c1565b80516020818301810180516000825292820191909301209152805460018201546002909201549091906001600160a01b031683565b805182511461018a5760405162461bcd60e51b8152602060048201526016602482015275082e4e4c2f2e640d8cadccee8d040dad2e6dac2e8c6d60531b604482015260640160405180910390fd5b60005b82518110156101e4576101d28382815181106101ab576101ab6105fe565b60200260200101518383815181106101c5576101c56105fe565b60200260200101516101e9565b806101dc81610614565b91505061018d565b505050565b604080516060810182528281524260208201523381830152905160009061021190859061063b565b908152604080516020928190038301812084518155928401516001840155920151600290910180546001600160a01b0319166001600160a01b0390921691909117905561025f90839061063b565b60408051918290038220838352336020840152917fac3d4f3cbf6818c9329b6b8c61e41d9dc52fc1cc580fff6af273be3ebc1d423f910160405180910390a25050565b6000806000806000866040516102b8919061063b565b9081526040805160209281900383018120606082018352805480835260018201549483018590526002909101546001600160a01b0316919092018190529614979096509350505050565b600080600080600085604051610318919061063b565b9081526040805160209281900383018120606082018352805480835260018201549483018590526002909101546001600160a01b0316919092018190529097919650945092505050565b634e487b7160e01b600052604160045260246000fd5b604051601f8201601f1916810167ffffffffffffffff811182821017156103a1576103a1610362565b604052919050565b600067ffffffffffffffff8211156103c3576103c3610362565b5060051b60200190565b600082601f8301126103de57600080fd5b813567ffffffffffffffff8111156103f8576103f8610362565b61040b601f8201601f1916602001610378565b81815284602083860101111561042057600080fd5b816020850160208301376000918101602001919091529392505050565b600082601f83011261044e57600080fd5b8135602061046361045e836103a9565b610378565b82815260059290921b8401810191818101908684111561048257600080fd5b8286015b8481101561049d5780358352918301918301610486565b509695505050505050565b600080604083850312156104bb57600080fd5b823567ffffffffffffffff808211156104d357600080fd5b818501915085601f8301126104e757600080fd5b813560206104f761045e836103a9565b82815260059290921b8401810191818101908984111561051657600080fd5b8286015b8481101561054e578035868111156105325760008081fd5b6105408c86838b01016103cd565b84525091830191830161051a565b509650508601359250508082111561056557600080fd5b506105728582860161043d565b9150509250929050565b6000806040838503121561058f57600080fd5b823567ffffffffffffffff8111156105a657600080fd5b6105b2858286016103cd565b95602094909401359450505050565b6000602082840312156105d357600080fd5b813567ffffffffffffffff8111156105ea57600080fd5b6105f6848285016103cd565b949350505050565b634e487b7160e01b600052603260045260246000fd5b60006001820161063457634e487b7160e01b600052601160045260246000fd5b5060010190565b6000825160005b8181101561065c5760208186018101518583015201610642565b50600092019182525091905056fea2646970667358221220c3ea212644c861f0e892deb0129df945a7fa2af5971e51e4b97810c73fc547f764736f6c63430008110033",
  "devdoc": {
    "kind": "dev",
    "methods": {},
    "version": 1
  },
  "userdoc": {
    "kind": "user",
    "methods": {},
    "version": 1
  },
  "storageLayout": {
    "storage": [
      {
        "astId": 13,
        "contract": "contracts/SHINE.sol:SHINE",
        "label": "nodeData",
        "offset": 0,
        "slot": "0",
        "type": "t_mapping(t_bytes_memory_ptr,t_struct(DataRecord)8_storage)"
      }
    ],
    "types": {
      "t_address": {
        "encoding": "inplace",
        "label": "address",
        "numberOfBytes": "20"
      },
      "t_bytes32": {
        "encoding": "inplace",
        "label": "bytes32",
        "numberOfBytes": "32"
      },
      "t_bytes_memory_ptr": {
        "encoding": "bytes",
        "label": "bytes",
        "numberOfBytes": "32"
      },
      "t_mapping(t_bytes_memory_ptr,t_struct(DataRecord)8_storage)": {
        "encoding": "mapping",
        "key": "t_bytes_memory_ptr",
        "label": "mapping(bytes => struct SHINE.DataRecord)",
        "numberOfBytes": "32",
        "value": "t_struct(DataRecord)8_storage"
      },
      "t_struct(DataRecord)8_storage": {
        "encoding": "inplace",
        "label": "struct SHINE.DataRecord",
        "members": [
          {
            "astId": 3,
            "contract": "contracts/SHINE.sol:SHINE",
            "label": "contentHash",
            "offset": 0,
            "slot": "0",
            "type": "t_bytes32"
          },
          {
            "astId": 5,
            "contract": "contracts/SHINE.sol:SHINE",
            "label": "timestamp",
            "offset": 0,
            "slot": "1",
            "type": "t_uint256"
          },
          {
            "astId": 7,
            "contract": "contracts/SHINE.sol:SHINE",
            "label": "updater",
            "offset": 0,
            "slot": "2",
            "type": "t_address"
          }
        ],
        "numberOfBytes": "96"
      },
      "t_uint256": {
        "encoding": "inplace",
        "label": "uint256",
        "numberOfBytes": "32"
      }
    }
  }
}